{
  "contractName": "TweetStorage",
  "abi": [
    {
      "inputs": [],
      "name": "controllerAddr",
      "outputs": [
        {
          "internalType": "address",
          "name": "",
          "type": "address"
        }
      ],
      "stateMutability": "view",
      "type": "function",
      "constant": true
    },
    {
      "inputs": [],
      "name": "ownerAddr",
      "outputs": [
        {
          "internalType": "address",
          "name": "",
          "type": "address"
        }
      ],
      "stateMutability": "view",
      "type": "function",
      "constant": true
    },
    {
      "inputs": [
        {
          "internalType": "address",
          "name": "_controllerAddr",
          "type": "address"
        }
      ],
      "name": "setControllerAddr",
      "outputs": [],
      "stateMutability": "nonpayable",
      "type": "function"
    },
    {
      "inputs": [
        {
          "internalType": "address",
          "name": "_newOwner",
          "type": "address"
        }
      ],
      "name": "transferOwnership",
      "outputs": [],
      "stateMutability": "nonpayable",
      "type": "function"
    },
    {
      "inputs": [
        {
          "internalType": "uint256",
          "name": "",
          "type": "uint256"
        }
      ],
      "name": "tweets",
      "outputs": [
        {
          "internalType": "uint256",
          "name": "id",
          "type": "uint256"
        },
        {
          "internalType": "string",
          "name": "text",
          "type": "string"
        },
        {
          "internalType": "uint256",
          "name": "userId",
          "type": "uint256"
        },
        {
          "internalType": "uint256",
          "name": "postedAt",
          "type": "uint256"
        }
      ],
      "stateMutability": "view",
      "type": "function",
      "constant": true
    },
    {
      "inputs": [
        {
          "internalType": "uint256",
          "name": "",
          "type": "uint256"
        },
        {
          "internalType": "uint256",
          "name": "",
          "type": "uint256"
        }
      ],
      "name": "userTweetIds",
      "outputs": [
        {
          "internalType": "uint256",
          "name": "",
          "type": "uint256"
        }
      ],
      "stateMutability": "view",
      "type": "function",
      "constant": true
    },
    {
      "inputs": [
        {
          "internalType": "uint256",
          "name": "_userId",
          "type": "uint256"
        },
        {
          "internalType": "string",
          "name": "_text",
          "type": "string"
        }
      ],
      "name": "createTweet",
      "outputs": [
        {
          "internalType": "uint256",
          "name": "",
          "type": "uint256"
        }
      ],
      "stateMutability": "nonpayable",
      "type": "function"
    },
    {
      "inputs": [
        {
          "internalType": "uint256",
          "name": "_userId",
          "type": "uint256"
        }
      ],
      "name": "getTweetIdsFromUser",
      "outputs": [
        {
          "internalType": "uint256[]",
          "name": "",
          "type": "uint256[]"
        }
      ],
      "stateMutability": "view",
      "type": "function",
      "constant": true
    }
  ],
  "bytecode": "0x6080604052600060045534801561001557600080fd5b50336000806101000a81548173ffffffffffffffffffffffffffffffffffffffff021916908373ffffffffffffffffffffffffffffffffffffffff160217905550610ca2806100656000396000f3fe608060405234801561001057600080fd5b50600436106100885760003560e01c80639c675eaa1161005b5780639c675eaa14610139578063e8d857b014610157578063ee255c571461018a578063f2fde38b146101a857610088565b8063317aae1b1461008d5780633a2ad5fd146100bd5780636981fa7d146100ed5780637cc82f2014610109575b600080fd5b6100a760048036038101906100a291906106f1565b6101c4565b6040516100b491906107dc565b60405180910390f35b6100d760048036038101906100d291906107fe565b61022f565b6040516100e4919061084d565b60405180910390f35b610107600480360381019061010291906108c6565b610260565b005b610123600480360381019061011e9190610a39565b6102fc565b604051610130919061084d565b60405180910390f35b61014161042d565b60405161014e9190610aa4565b60405180910390f35b610171600480360381019061016c91906106f1565b610451565b6040516101819493929190610b47565b60405180910390f35b610192610509565b60405161019f9190610aa4565b60405180910390f35b6101c260048036038101906101bd91906108c6565b61052f565b005b60606003600083815260200190815260200160002080548060200260200160405190810160405280929190818152602001828054801561022357602002820191906000526020600020905b81548152602001906001019080831161020f575b50505050509050919050565b6003602052816000526040600020818154811061024b57600080fd5b90600052602060002001600091509150505481565b60008054906101000a900473ffffffffffffffffffffffffffffffffffffffff1673ffffffffffffffffffffffffffffffffffffffff163373ffffffffffffffffffffffffffffffffffffffff16146102b857600080fd5b80600160006101000a81548173ffffffffffffffffffffffffffffffffffffffff021916908373ffffffffffffffffffffffffffffffffffffffff16021790555050565b6000600160009054906101000a900473ffffffffffffffffffffffffffffffffffffffff1673ffffffffffffffffffffffffffffffffffffffff163373ffffffffffffffffffffffffffffffffffffffff161461035857600080fd5b6004600081548092919061036b90610bc2565b919050555060405180608001604052806004548152602001838152602001848152602001428152506002600060045481526020019081526020016000206000820151816000015560208201518160010190805190602001906103ce929190610604565b506040820151816002015560608201518160030155905050600360008481526020019081526020016000206004549080600181540180825580915050600190039060005260206000200160009091909190915055600454905092915050565b60008054906101000a900473ffffffffffffffffffffffffffffffffffffffff1681565b600260205280600052604060002060009150905080600001549080600101805461047a90610c3a565b80601f01602080910402602001604051908101604052809291908181526020018280546104a690610c3a565b80156104f35780601f106104c8576101008083540402835291602001916104f3565b820191906000526020600020905b8154815290600101906020018083116104d657829003601f168201915b5050505050908060020154908060030154905084565b600160009054906101000a900473ffffffffffffffffffffffffffffffffffffffff1681565b60008054906101000a900473ffffffffffffffffffffffffffffffffffffffff1673ffffffffffffffffffffffffffffffffffffffff163373ffffffffffffffffffffffffffffffffffffffff161461058757600080fd5b600073ffffffffffffffffffffffffffffffffffffffff168173ffffffffffffffffffffffffffffffffffffffff1614156105c157600080fd5b806000806101000a81548173ffffffffffffffffffffffffffffffffffffffff021916908373ffffffffffffffffffffffffffffffffffffffff16021790555050565b82805461061090610c3a565b90600052602060002090601f0160209004810192826106325760008555610679565b82601f1061064b57805160ff1916838001178555610679565b82800160010185558215610679579182015b8281111561067857825182559160200191906001019061065d565b5b509050610686919061068a565b5090565b5b808211156106a357600081600090555060010161068b565b5090565b6000604051905090565b600080fd5b600080fd5b6000819050919050565b6106ce816106bb565b81146106d957600080fd5b50565b6000813590506106eb816106c5565b92915050565b600060208284031215610707576107066106b1565b5b6000610715848285016106dc565b91505092915050565b600081519050919050565b600082825260208201905092915050565b6000819050602082019050919050565b610753816106bb565b82525050565b6000610765838361074a565b60208301905092915050565b6000602082019050919050565b60006107898261071e565b6107938185610729565b935061079e8361073a565b8060005b838110156107cf5781516107b68882610759565b97506107c183610771565b9250506001810190506107a2565b5085935050505092915050565b600060208201905081810360008301526107f6818461077e565b905092915050565b60008060408385031215610815576108146106b1565b5b6000610823858286016106dc565b9250506020610834858286016106dc565b9150509250929050565b610847816106bb565b82525050565b6000602082019050610862600083018461083e565b92915050565b600073ffffffffffffffffffffffffffffffffffffffff82169050919050565b600061089382610868565b9050919050565b6108a381610888565b81146108ae57600080fd5b50565b6000813590506108c08161089a565b92915050565b6000602082840312156108dc576108db6106b1565b5b60006108ea848285016108b1565b91505092915050565b600080fd5b600080fd5b6000601f19601f8301169050919050565b7f4e487b7100000000000000000000000000000000000000000000000000000000600052604160045260246000fd5b610946826108fd565b810181811067ffffffffffffffff821117156109655761096461090e565b5b80604052505050565b60006109786106a7565b9050610984828261093d565b919050565b600067ffffffffffffffff8211156109a4576109a361090e565b5b6109ad826108fd565b9050602081019050919050565b82818337600083830152505050565b60006109dc6109d784610989565b61096e565b9050828152602081018484840111156109f8576109f76108f8565b5b610a038482856109ba565b509392505050565b600082601f830112610a2057610a1f6108f3565b5b8135610a308482602086016109c9565b91505092915050565b60008060408385031215610a5057610a4f6106b1565b5b6000610a5e858286016106dc565b925050602083013567ffffffffffffffff811115610a7f57610a7e6106b6565b5b610a8b85828601610a0b565b9150509250929050565b610a9e81610888565b82525050565b6000602082019050610ab96000830184610a95565b92915050565b600081519050919050565b600082825260208201905092915050565b60005b83811015610af9578082015181840152602081019050610ade565b83811115610b08576000848401525b50505050565b6000610b1982610abf565b610b238185610aca565b9350610b33818560208601610adb565b610b3c816108fd565b840191505092915050565b6000608082019050610b5c600083018761083e565b8181036020830152610b6e8186610b0e565b9050610b7d604083018561083e565b610b8a606083018461083e565b95945050505050565b7f4e487b7100000000000000000000000000000000000000000000000000000000600052601160045260246000fd5b6000610bcd826106bb565b91507fffffffffffffffffffffffffffffffffffffffffffffffffffffffffffffffff821415610c0057610bff610b93565b5b600182019050919050565b7f4e487b7100000000000000000000000000000000000000000000000000000000600052602260045260246000fd5b60006002820490506001821680610c5257607f821691505b60208210811415610c6657610c65610c0b565b5b5091905056fea2646970667358221220519128888600f9d39a6cbf66f0f4d3c42cb0bf4c32ff406f48a47a674a8630f364736f6c634300080a0033",
  "immutableReferences": {},
  "source": "pragma solidity ^0.8.10;\n\nimport '../helpers/BaseStorage.sol';\n\ncontract TweetStorage is BaseStorage{\n  mapping(uint => Tweet) public tweets;\n  mapping (uint => uint[]) public userTweetIds;\n  \n  struct Tweet {\n    uint id;\n    string text;\n    uint userId;\n    uint postedAt;\n  }\n\n  uint latestTweetId = 0;\n\n  function createTweet(uint _userId, string memory _text) public onlyController returns(uint) {\n    latestTweetId++;\n\n    tweets[latestTweetId] = Tweet(latestTweetId, _text, _userId, block.timestamp);\n    userTweetIds[_userId].push(latestTweetId);\n\n    return latestTweetId;\n  }\n\n  function getTweetIdsFromUser(uint _userId) view public returns(uint[] memory) {\n    return userTweetIds[_userId];\n  }\n\n}",
  "sourcePath": "/Users/vatsalyaverma/Downloads/tweether/contracts/tweets/TweetStorage.sol",
  "compiler": {
    "name": "solc",
    "version": "0.8.10+commit.fc410830.Emscripten.clang"
  },
  "schemaVersion": "3.4.3",
  "updatedAt": "2022-01-01T22:19:13.303Z",
  "networkType": "ethereum",
  "devdoc": {
    "kind": "dev",
    "methods": {},
    "version": 1
  },
  "userdoc": {
    "kind": "user",
    "methods": {},
    "version": 1
  }
}