{
  "contractName": "UserController",
  "abi": [
    {
      "inputs": [],
      "name": "ownerAddr",
      "outputs": [
        {
          "internalType": "address",
          "name": "",
          "type": "address"
        }
      ],
      "stateMutability": "view",
      "type": "function",
      "constant": true
    },
    {
      "inputs": [
        {
          "internalType": "address",
          "name": "_managerAddr",
          "type": "address"
        }
      ],
      "name": "setManagerAddr",
      "outputs": [],
      "stateMutability": "nonpayable",
      "type": "function"
    },
    {
      "inputs": [
        {
          "internalType": "address",
          "name": "_newOwner",
          "type": "address"
        }
      ],
      "name": "transferOwnership",
      "outputs": [],
      "stateMutability": "nonpayable",
      "type": "function"
    },
    {
      "inputs": [
        {
          "internalType": "string",
          "name": "_username",
          "type": "string"
        },
        {
          "internalType": "string",
          "name": "_firstName",
          "type": "string"
        },
        {
          "internalType": "string",
          "name": "_lastName",
          "type": "string"
        },
        {
          "internalType": "string",
          "name": "_bio",
          "type": "string"
        },
        {
          "internalType": "string",
          "name": "_gravatarEmail",
          "type": "string"
        }
      ],
      "name": "createUser",
      "outputs": [
        {
          "internalType": "uint256",
          "name": "",
          "type": "uint256"
        }
      ],
      "stateMutability": "nonpayable",
      "type": "function"
    }
  ],
  "bytecode": "0x608060405234801561001057600080fd5b50336000806101000a81548173ffffffffffffffffffffffffffffffffffffffff021916908373ffffffffffffffffffffffffffffffffffffffff160217905550610a6a806100606000396000f3fe608060405234801561001057600080fd5b506004361061004c5760003560e01c806365c06f70146100515780637978b231146100815780639c675eaa1461009d578063f2fde38b146100bb575b600080fd5b61006b6004803603810190610066919061060f565b6100d7565b604051610078919061072f565b60405180910390f35b61009b600480360381019061009691906107a8565b610320565b005b6100a56103bc565b6040516100b291906107e4565b60405180910390f35b6100d560048036038101906100d091906107a8565b6103e0565b005b600080600160009054906101000a900473ffffffffffffffffffffffffffffffffffffffff16905060008173ffffffffffffffffffffffffffffffffffffffff1663bf40fac16040518163ffffffff1660e01b81526004016101389061085c565b602060405180830381865afa158015610155573d6000803e3d6000fd5b505050506040513d601f19601f820116820180604052508101906101799190610891565b9050600081905060008173ffffffffffffffffffffffffffffffffffffffff166382d38954336040518263ffffffff1660e01b81526004016101bb91906107e4565b602060405180830381865afa1580156101d8573d6000803e3d6000fd5b505050506040513d601f19601f820116820180604052508101906101fc91906108ea565b1461020657600080fd5b60008173ffffffffffffffffffffffffffffffffffffffff1663aaee301f8b6040518263ffffffff1660e01b8152600401610241919061098e565b602060405180830381865afa15801561025e573d6000803e3d6000fd5b505050506040513d601f19601f8201168201806040525081019061028291906108ea565b1461028c57600080fd5b8073ffffffffffffffffffffffffffffffffffffffff1663a377d18f338b8b8b8b8b6040518763ffffffff1660e01b81526004016102cf969594939291906109b0565b6020604051808303816000875af11580156102ee573d6000803e3d6000fd5b505050506040513d601f19601f8201168201806040525081019061031291906108ea565b935050505095945050505050565b60008054906101000a900473ffffffffffffffffffffffffffffffffffffffff1673ffffffffffffffffffffffffffffffffffffffff163373ffffffffffffffffffffffffffffffffffffffff161461037857600080fd5b80600160006101000a81548173ffffffffffffffffffffffffffffffffffffffff021916908373ffffffffffffffffffffffffffffffffffffffff16021790555050565b60008054906101000a900473ffffffffffffffffffffffffffffffffffffffff1681565b60008054906101000a900473ffffffffffffffffffffffffffffffffffffffff1673ffffffffffffffffffffffffffffffffffffffff163373ffffffffffffffffffffffffffffffffffffffff161461043857600080fd5b600073ffffffffffffffffffffffffffffffffffffffff168173ffffffffffffffffffffffffffffffffffffffff16141561047257600080fd5b806000806101000a81548173ffffffffffffffffffffffffffffffffffffffff021916908373ffffffffffffffffffffffffffffffffffffffff16021790555050565b6000604051905090565b600080fd5b600080fd5b600080fd5b600080fd5b6000601f19601f8301169050919050565b7f4e487b7100000000000000000000000000000000000000000000000000000000600052604160045260246000fd5b61051c826104d3565b810181811067ffffffffffffffff8211171561053b5761053a6104e4565b5b80604052505050565b600061054e6104b5565b905061055a8282610513565b919050565b600067ffffffffffffffff82111561057a576105796104e4565b5b610583826104d3565b9050602081019050919050565b82818337600083830152505050565b60006105b26105ad8461055f565b610544565b9050828152602081018484840111156105ce576105cd6104ce565b5b6105d9848285610590565b509392505050565b600082601f8301126105f6576105f56104c9565b5b813561060684826020860161059f565b91505092915050565b600080600080600060a0868803121561062b5761062a6104bf565b5b600086013567ffffffffffffffff811115610649576106486104c4565b5b610655888289016105e1565b955050602086013567ffffffffffffffff811115610676576106756104c4565b5b610682888289016105e1565b945050604086013567ffffffffffffffff8111156106a3576106a26104c4565b5b6106af888289016105e1565b935050606086013567ffffffffffffffff8111156106d0576106cf6104c4565b5b6106dc888289016105e1565b925050608086013567ffffffffffffffff8111156106fd576106fc6104c4565b5b610709888289016105e1565b9150509295509295909350565b6000819050919050565b61072981610716565b82525050565b60006020820190506107446000830184610720565b92915050565b600073ffffffffffffffffffffffffffffffffffffffff82169050919050565b60006107758261074a565b9050919050565b6107858161076a565b811461079057600080fd5b50565b6000813590506107a28161077c565b92915050565b6000602082840312156107be576107bd6104bf565b5b60006107cc84828501610793565b91505092915050565b6107de8161076a565b82525050565b60006020820190506107f960008301846107d5565b92915050565b600082825260208201905092915050565b7f5573657253746f72616765000000000000000000000000000000000000000000600082015250565b6000610846600b836107ff565b915061085182610810565b602082019050919050565b6000602082019050818103600083015261087581610839565b9050919050565b60008151905061088b8161077c565b92915050565b6000602082840312156108a7576108a66104bf565b5b60006108b58482850161087c565b91505092915050565b6108c781610716565b81146108d257600080fd5b50565b6000815190506108e4816108be565b92915050565b600060208284031215610900576108ff6104bf565b5b600061090e848285016108d5565b91505092915050565b600081519050919050565b60005b83811015610940578082015181840152602081019050610925565b8381111561094f576000848401525b50505050565b600061096082610917565b61096a81856107ff565b935061097a818560208601610922565b610983816104d3565b840191505092915050565b600060208201905081810360008301526109a88184610955565b905092915050565b600060c0820190506109c560008301896107d5565b81810360208301526109d78188610955565b905081810360408301526109eb8187610955565b905081810360608301526109ff8186610955565b90508181036080830152610a138185610955565b905081810360a0830152610a278184610955565b905097965050505050505056fea2646970667358221220a938a63ded6c8dda565481d8012e7861c2a49ecc1aca74a9d86de72fae8b064b64736f6c634300080a0033",
  "immutableReferences": {},
  "source": "pragma solidity ^0.8.10;\n\nimport '../helpers/BaseController.sol';\nimport '../ContractManager.sol';\nimport './UserStorage.sol';\n\ncontract UserController is BaseController {\n  function createUser(\n    string memory _username, \n    string memory _firstName, \n    string memory _lastName,\n    string memory _bio,\n    string memory _gravatarEmail\n  ) public returns(uint) {\n    ContractManager _manager = ContractManager(managerAddr);\n\n    address _userStorageAddr = _manager.getAddress(\"UserStorage\");\n    UserStorage _storage = UserStorage(_userStorageAddr); \n\n    require(_storage.addresses(msg.sender) == 0);\n    require(_storage.usernames(_username) == 0);\n\n    return _storage.createUser(\n      msg.sender,\n      _username, \n      _firstName, \n      _lastName, \n      _bio,\n      _gravatarEmail\n    );\n  }\n}\n\n\n\n\n\n\n\n\n\n\n\n\n\n\n\n\n\n\n\n\n\n\n\n\n\n\n\n\n\n\n\n",
  "sourcePath": "/Users/vatsalyaverma/Downloads/tweether/contracts/users/UserController.sol",
  "compiler": {
    "name": "solc",
    "version": "0.8.10+commit.fc410830.Emscripten.clang"
  },
  "schemaVersion": "3.4.3",
  "updatedAt": "2022-01-01T22:19:12.556Z",
  "networkType": "ethereum",
  "devdoc": {
    "kind": "dev",
    "methods": {},
    "version": 1
  },
  "userdoc": {
    "kind": "user",
    "methods": {},
    "version": 1
  }
}